:020000040000FA
:100000006CEF00F0E806E56E630E21EC00F0630E85
:100010004DEC00F0090E60EC00F0E45011E000D06F
:10002000E56E630E21EC00F0630E4DEC00F0090E5E
:1000300060EC00F000D000D00000E450E82EF0D7D3
:100040001200E806E56E090E3AEC00F0630E60EC73
:1000500000F0E4500EE000D0E56E090E3AEC00F03E
:10006000630E60EC00F000D000D00000E450E82EF9
:10007000F3D71200E806E56E630E60EC00F0E45082
:100080000BE000D0E56E630E60EC00F000D000D015
:100090000000E450E82EF6D71200E806E56E090EDF
:1000A00060EC00F0E4500BE000D0E56E090E60EC6F
:1000B00000F000D0E450000000D0E82EF6D7120087
:1000C000E8060000E85007E000D000D000D000D0E3
:1000D0000000E82EFAD7120017EEFFF027EEFFF02F
:1000E000F86AA68EA69CBE0EF66E010EF76E000E86
:1000F000F86E0900F5CF05F00900F5CF06F034D011
:100100000900F5CF00F00900F5CF01F00900F5CFA7
:1001100002F009000900F5CFE9FF0900F5CFEAFF79
:10012000090009000900F5CF03F00900F5CF04F03C
:1001300009000900F6CF07F0F7CF08F0F8CF09F073
:1001400000C0F6FF01C0F7FF02C0F8FF03D00900AE
:10015000F5CFEEFF0306FBE20406F9E207C0F6FF67
:1001600008C0F7FF09C0F8FF0506CAE20606C8E2A4
:10017000BBEC00F0FFD7010E006E956A936A010E8A
:100180008A6E010E8C6E050E02EC00F00050800AA3
:100190000AE00050020DF3CF00F000C08CFF050E06
:1001A00002EC00F0F3D70050010AF0E0D8900032E2
:1001B00000C08CFF050E02EC00F0F5D71200010024
:0E01C000CC0100006000000001000000000003
:020000040030CA
:04000000240E3F1E6D
:020005008181F7
:010008000FE8
:00000001FF
