:020000040000FA
:10000000CBEF00F0AE0EF66E010EF76E000EF86E3E
:100010000900F550056E0900F550066E055002E125
:1000200006503BE00900F550006E0900F550016EE6
:100030000900F550026E09000900F550E96E09004B
:10004000F550EA6E090009000900F550036E090039
:10005000F550046E09000900F6CF07F0F7CF08F05D
:10006000F8CF09F000C0F6FF01C0F7FF02C0F8FFAB
:10007000035002E1045007E00900F550EE6E03065C
:10008000F8E20406F9D707C0F6FF08C0F7FF09C079
:10009000F8FF0506C4E20606C5D71200D9CFE5FF72
:1000A000E1CFD9FF00C0E5FF01C0E5FF02C0E5FFD9
:1000B00003C0E5FF020EDBCF00F0030EDBCF01F043
:1000C000040EDBCF02F0050EDBCF03F0C26A0F0E89
:1000D00000160044E844FC0BC26E3F0E0216300EC0
:1000E00003140210C16E380EC014006E070E011604
:1000F00001500012800E03140010C06E03A003D044
:100100009E9C9D8CF28CC280E4CF03F0E4CF02F081
:10011000E4CF01F0E4CF00F0E4CFD9FF1200D9CF53
:10012000E5FFE1CFD9FF00C0E5FF01C0E5FF020E0A
:10013000DBCF00F0800EE56E0C0EE56E060EE56E70
:100140000050E56E4EEC00F0040EE126E9EC00F004
:10015000E2EC00F0006E0050FBE1DEEC00F0006E1F
:10016000F3CF01F0E6EC00F001C0F3FF0050E4CF64
:1001700001F0E4CF00F0E4CFD9FF1200956A000E41
:10018000E56E8FEC00F0006EF3CF01F0E12A005035
:100190008C6EF5D7120011EEFFF021EEFFF0F86A39
:1001A000A68EA69C02EC00F0BEEC00F0FFD701008A
:1001B000D60100006000000001000000C4CFF3FF82
:1001C000C3501200000EC2B2010F1200C2909D9CDB
:0801D0001200C28212000000BF
:020000040030CA
:0E000000E4FEFFFEFFFDBBFFFFFFFFFFFFFF63
:00000001FF
