:020000040000FA
:1000000002EF00F017EEFFF027EEFFF0F86AA68E81
:10001000A69CB00EF66E000EF76E000EF86E09008C
:10002000F5CF05F00900F5CF06F034D00900F5CF83
:1000300000F00900F5CF01F00900F5CF02F009004A
:100040000900F5CFE9FF0900F5CFEAFF0900090033
:100050000900F5CF03F00900F5CF04F0090009000D
:10006000F6CF07F0F7CF08F0F8CF09F000C0F6FFA1
:1000700001C0F7FF02C0F8FF03D00900F5CFEEFF83
:100080000306FBE20406F9E207C0F6FF08C0F7FF2B
:1000900009C0F8FF0506CAE20606C8E251EC00F006
:1000A000FFD7956A010E936E81CF8CFFFDD71200AA
:1000B0000100BE0000006000000001000000000020
:020000040030CA
:04000000240E3F1E6D
:020005008181F7
:010008000FE8
:00000001FF
