:020000040000FA
:1000000074EF07F0D9CFE5FFE1CFD9FF00C0E5FFDE
:1000100001C0E5FF02C0E5FF03C0E5FF04C0E5FF46
:1000200005C0E5FF06C0E5FF07C0E5FF08C0E5FF26
:1000300009C0E5FF0AC0E5FF0BC0E5FF0CC0E5FF06
:100040000DC0E5FF0EC0E5FF0FC0E5FF10C0E5FFE6
:1000500011C0E5FF12C0E5FF13C0E5FF14C0E5FFC6
:1000600015C0E5FF16C0E5FF17C0E5FF18C0E5FFA6
:1000700019C0E5FF1AC0E5FF1BC0E5FF1CC0E5FF86
:100080001DC0E5FF1EC0E5FF020EDBCF00F0030E32
:10009000DBCF01F0040EDBCF02F0050EDBCF03F067
:1000A000060EDBCF04F0070EDBCF05F0080EDBCF2A
:1000B00006F0090EDBCF07F00A0EDBCF08F0096A65
:1000C0000A6A02C00DF00D50800A0DE102500001D5
:1000D000956F0150946F0050936F000E016E930E58
:1000E000006E800E026E03C0E9FF04C0F3FF0550EE
:1000F0007DEC0AF00B6E0B50D8B4BEEF03F00B5042
:10010000250A02E0A5EF03F00C6A0D6A0E6A0F6A79
:10011000106A0A0E116E126A136A146A200E156EA6
:100120001668176A2B0E186E032A02E3044A052A82
:1001300003C0E9FF04C0F3FF05507DEC0AF0196E1F
:10014000250A13E11950E56E0250E56E0150E56E87
:100150000050E56E0DEC06F0040EE126094A0A2A6D
:10016000032A02E3044A052ABED71950300A06E1E1
:10017000300E156E032A02E3044A052A03C0E9FF84
:1001800004C0F3FF05507DEC0AF02D0A06E1010ED4
:10019000146E032A02E3044A052A03C0E9FF04C0DF
:1001A000F3FF05507DEC0AF0200A08E1010E176EFE
:1001B000200E186E032A02E3044A052A03C0E9FF51
:1001C00004C0F3FF05507DEC0AF02B0A06E1010E96
:1001D000176E032A02E3044A052A03C0E9FF04C09C
:1001E000F3FF05507DEC0AF0196E800F4F0F2DE3E1
:1001F0001950800F460F29E203C019F004C01AF00D
:1002000005C01BF019C0E9FF1AC0F3FF1B507DECBD
:100210000AF01C6E800F500F12E31C50800F460F27
:100220000EE213500A0DF3CF1DF01D501C26D00E08
:100230001C24136E192A02E31A4A1B2AE3D719C099
:1002400003F01AC004F01BC005F003C0E9FF04C0AE
:10025000F3FF05507DEC0AF02E0A2EE1032A02E39B
:10026000044A052A166A03C019F004C01AF005C032
:100270001BF019C0E9FF1AC0F3FF1B507DEC0AF018
:100280001C6E800F500F12E31C50800F460F0EE2C1
:1002900016500A0DF3CF1DF01D501C26D00E1C2445
:1002A000166E192A02E31A4A1B2AE3D719C003F073
:1002B0001AC004F01BC005F003C0E9FF04C0F3FF3F
:1002C00005507DEC0AF0196E6C0A07E1010E0C6E08
:1002D000032A02E3044A052A09D01950680A06E1F4
:1002E000010E0E6E032A02E3044A052A03C0E9FF49
:1002F00004C0F3FF05507DEC0AF0750A06E1010E1B
:10030000106E032A02E3044A052A03C0E9FF04C071
:10031000F3FF05507DEC0AF0196E730A05E1010E3A
:100320000D6E200E156E3FD01950780A03E1100EA5
:10033000116E39D01950580A05E1100E116E010ED8
:10034000126E31D01950630A02E1116A2CD0195093
:100350006F0A03E1080E116E26D01950660A03E1F8
:10036000010E0F6E20D01950640A1DE01950690A61
:100370001AE0105005E0FF0E03260422052213D0D8
:100380001950E56E0250E56E0150E56E0050E56EC5
:100390000DEC06F0040EE126094A0A2A032A02E3BC
:1003A000044A052AA0D60D5021E00650030F0D6E19
:1003B000000E0720196E000E08201A6E0DC006F000
:1003C00019C007F01AC008F0FD0E0D26FF0E192205
:1003D0001A220DC0E9FF19C0F3FF1A505DEC09F0B5
:1003E0000D6EF3CF19F0F4CF1AF000D10F500DE0DD
:1003F000000E1A6E080E196E040E0D6E040E0626FF
:10040000000E072208221668F1D016680C5023E06F
:100410000650040F0C6E000E07200F6E000E082011
:100420001B6E0CC006F00FC007F01BC008F0FC0EDE
:100430000C26FF0E0F221B220CC0E9FF0FC0F3FF9A
:100440001B503DEC09F00C6EF3CF0FF0F4CF1BF016
:10045000E9CF1CF06AD00E5032E00650020F0E6E4B
:10046000000E07201D6E000E08201E6E0EC006F046
:100470001DC007F01EC008F0FE0E0E26FF0E1D2246
:100480001E220EC0E9FF1DC0F3FF1E5017EC0AF03C
:100490000E6E0EC00CF0E86A0EBEFF0E0F6E1B6EE5
:1004A0001C6E11500A0A03E11050D8B43ED00C5013
:1004B0000E6E0EC00CF00F6A1B6A1C6A36D0065016
:1004C000020F0E6E000E07201D6E000E08201E6E1D
:1004D0000EC006F01DC007F01EC008F0FE0E0E266E
:1004E000FF0E1D221E220EC0E9FF1DC0F3FF1E508D
:1004F00017EC0AF00E6EF3CF1DF00EC00CF01DC00D
:100500000FF0E86A1DBEFF0E1B6E1C6E11500A0A2A
:1005100002E110500AE00C500E6E0F501D6E0EC01E
:100520000CF01DC00FF01B6A1C6A000E196E810EC4
:100530000D6E800E1A6E1150D8B440D0105013E0DA
:100540001150E56E000EE56E810EE56E1C50E56EF5
:100550001B50E56E0F50E56E0C50E56E08EC04F094
:10056000070EE12612D01150E56E000EE56E810EE9
:10057000E56E1C50E56E1B50E56E0F50E56E0C509D
:10058000E56E11EC07F0070EE12617502FE00DC0C5
:10059000E9FF19C0F3FF1A507DEC0AF02D0A26E09E
:1005A000FF0E0D2619221A2218C0E5FF0DC0E9FF23
:1005B00019C0F3FF1A50E1EC0AF018D00CC0E5FFA7
:1005C0000DC0E9FF19C0F3FF1A50E1EC0AF00D501D
:1005D000010F0C6E000E19200E6E000E1A20E56A37
:1005E0000CC0E9FF0EC0F3FFE1EC0AF00DC00CF007
:1005F00019C00EF01AC00FF013C010F0105010E028
:100600000CC0E9FF0EC0F3FF0F507DEC0AF0176E2F
:10061000175006E00C2A02E30E4A0F2A1006EED706
:1006200010C013F014501EE109C00CF00AC00EF007
:1006300010C00FF00F5010E01550E56E0250E56E3F
:100640000150E56E0050E56E0DEC06F0040EE1265B
:100650000C4A0E2A0F06EED70CC009F00EC00AF0A5
:100660000FC013F016C00CF00DC00DF019C00EF045
:100670001AC00FF009C010F00AC015F00DC0E9FF54
:100680000EC0F3FF0F507DEC0AF0166E1650D8B472
:100690003ED00CC016F0176A161E171E1650171003
:1006A00005E00CC016F00C06165031E00DC0E9FF55
:1006B0000EC0F3FF0F507DEC0AF0116E125010E0E7
:1006C0001150E56EA8EC09F0166EE652165004E0E3
:1006D0001150166E169A02D011C016F016C011F005
:1006E0001150E56E0250E56E0150E56E0050E56E6A
:1006F0000DEC06F0040EE1260D2A02E30E4A0F2A45
:10070000104A152A1350D8B4B9D71306B7D710C05A
:1007100009F015C00AF014502BE010C00CF015C001
:100720000DF013C00EF00E501FE0200EE56E0250CB
:10073000E56E0150E56E0050E56E0DEC06F0040E1E
:10074000E1260C4A0D2A0E06EED70B50E56E02503C
:10075000E56E0150E56E0050E56E0DEC06F0040EFE
:10076000E126094A0A2A04D00CC009F00DC00AF09B
:10077000032A02E3044A052A73EF00F00AC0F3FFDC
:100780000950E4CF1EF0E4CF1DF0E4CF1CF0E4CF1D
:100790001BF0E4CF1AF0E4CF19F0E4CF18F0E4CF67
:1007A00017F0E4CF16F0E4CF15F0E4CF14F0E4CF67
:1007B00013F0E4CF12F0E4CF11F0E4CF10F0E4CF67
:1007C0000FF0E4CF0EF0E4CF0DF0E4CF0CF0E4CF67
:1007D0000BF0E4CF0AF0E4CF09F0E4CF08F0E4CF67
:1007E00007F0E4CF06F0E4CF05F0E4CF04F0E4CF67
:1007F00003F0E4CF02F0E4CF01F0E4CF00F0E4CF67
:10080000D9FF12003C4E4F20464C4F41543E000051
:10081000D9CFE5FFE1CFD9FF00C0E5FF01C0E5FF7B
:1008200002C0E5FF03C0E5FF04C0E5FF05C0E5FF2A
:1008300006C0E5FF07C0E5FF08C0E5FF09C0E5FF0A
:100840000AC0E5FF0BC0E5FF0CC0E5FF0DC0E5FFEA
:100850000EC0E5FF0FC0E5FF020EDBCF00F0030E78
:10086000DBCF01F0040EDBCF02F0050EDBCF03F08F
:10087000060EDBCF04F0070EDBCF05F0080EDBCF52
:1008800006F0200E076E086A06C009F00A6A0B6AB5
:100890000C6AE56AE56AE56A0950E56E0350E56EA3
:1008A0000250E56E0150E56E0050E56EE4EC04F098
:1008B0000D6E080EE126300E0D263A0E0D5C05E396
:1008C0000D500E6E270E0E240D6EFF0E0726082209
:1008D000600E07240E6E000E08200F6E0EC0E9FF9A
:1008E0000FC0EAFF0DC0EFFF0C50E56E0B50E56E38
:1008F0000A50E56E0950E56E0350E56E0250E56E54
:100900000150E56E0050E56E81EC05F0006EF3CF0E
:1009100001F0F4CF02F0E9CF03F0080EE126005019
:10092000011002100310D8A4AFD707C000F008C010
:1009300001F004C002F005C003F000C004F001C0E3
:1009400005F0004A012A600E0426000E052204C0AC
:10095000E9FF05C0EAFFEFCF04F002C0E9FF03C0E2
:10096000EAFF04C0EFFF024A032A000E015C02E125
:10097000200E005CE2E302C0E9FF03C0EAFF000EC4
:10098000EF6AE4CF0FF0E4CF0EF0E4CF0DF0E4CF48
:100990000CF0E4CF0BF0E4CF0AF0E4CF09F0E4CFA1
:1009A00008F0E4CF07F0E4CF06F0E4CF05F0E4CFA1
:1009B00004F0E4CF03F0E4CF02F0E4CF01F0E4CFA1
:1009C00000F0E4CFD9FF1200D9CFE5FFE1CFD9FF86
:1009D00000C0E5FF01C0E5FF02C0E5FF03C0E5FF81
:1009E00004C0E5FF05C0E5FF06C0E5FF07C0E5FF61
:1009F00008C0E5FF09C0E5FF0AC0E5FF020EDBCF36
:100A000000F0030EDBCF01F0040EDBCF02F0050E89
:100A1000DBCF03F0060EDBCF04F0070EDBCF05F0D3
:100A2000080EDBCF06F0090EDBCF07F0086A045092
:100A300005100610071005E1E968F468F368E86836
:100A400047D0096A0750800BE8440A6E0A501BE140
:100A5000045004260536063607360750035C08E1C5
:100A60000650025C05E10550015C02E10450005CA7
:100A700006E2D890073206320532043204D0092A41
:100A800009C008F0DFD70750035C08E10650025C9C
:100A900005E10550015C02E10450005C08E30450EC
:100AA000005E0550015A0650025A0750035AD8906A
:100AB000073206320532043208C009F00806095030
:100AC000E2E103C0E9FF02C0F4FF01C0F3FF005000
:100AD000E4CF0AF0E4CF09F0E4CF08F0E4CF07F068
:100AE000E4CF06F0E4CF05F0E4CF04F0E4CF03F068
:100AF000E4CF02F0E4CF01F0E4CF00F0E4CFD9FF7F
:100B00001200D9CFE5FFE1CFD9FF00C0E5FF01C05A
:100B1000E5FF02C0E5FF03C0E5FF04C0E5FF05C037
:100B2000E5FF06C0E5FF07C0E5FF08C0E5FF09C017
:100B3000E5FF0AC0E5FF0BC0E5FF0CC0E5FF0DC0F7
:100B4000E5FF020EDBCF00F0030EDBCF01F0040E59
:100B5000DBCF02F0050EDBCF03F0060EDBCF04F097
:100B6000070EDBCF05F0080EDBCF06F0090EDBCF5A
:100B700007F0086A096A0A6A0B6A200E0C6E0350B5
:100B8000800BE8440D6E0050002601360236033615
:100B90000850082609360A360B360D50D8A40880AE
:100BA00007500B5C08E106500A5C05E10550095C42
:100BB00002E10450085C09E30450085E0550095A3C
:100BC00006500A5A07500B5A00800C2ED8D703C083
:100BD000E9FF02C0F4FF01C0F3FF0050E4CF0DF0C5
:100BE000E4CF0CF0E4CF0BF0E4CF0AF0E4CF09F04F
:100BF000E4CF08F0E4CF07F0E4CF06F0E4CF05F04F
:100C0000E4CF04F0E4CF03F0E4CF02F0E4CF01F04E
:100C1000E4CF00F0E4CFD9FF1200D9CFE5FFE1CF58
:100C2000D9FF00C0E5FF01C0E5FF02C0E5FF03C03A
:100C3000E5FF04C0E5FF05C0E5FF06C0E5FF07C00E
:100C4000E5FF020EDBCF00F0030EDBCF01F0040E58
:100C5000DBCF02F0050EDBCF03F002C006F006503A
:100C6000046E800A33E100C0E9FF01C0F3FF0250C7
:100C70005DEC09F0056EF3CF06F0F4CF07F003C08A
:100C8000E5FF05C0E9FF06C0F3FF0750E1EC0AF0FD
:100C900000C0E9FF01C0F3FF02505DEC09F0056EF2
:100CA000F3CF06F0F4CF07F0052A02E3064A072A3D
:100CB00005C0E5FF06C0F4FF07C0F6FF00C0E9FF6E
:100CC00001C0F3FF0250AEEC0AF01DD004AA1BD005
:100CD000047A045004E10350FBEC0AF014D00450F1
:100CE000010A04E1035002EC0BF00DD004500F0A8E
:100CF00004E1035042EC0AF006D004500E0A03E16E
:100D00000350FFEC0AF0E4CF07F0E4CF06F0E4CFA5
:100D100005F0E4CF04F0E4CF03F0E4CF02F0E4CF39
:100D200001F0E4CF00F0E4CFD9FF1200D9CFE5FF06
:100D3000E1CFD9FF00C0E5FF01C0E5FF02C0E5FF3C
:100D4000020EDBCF00F0030EDBCF01F0040EDBCF91
:100D500002F000C098F001C099F002C096F0025075
:100D600007E000018D6B00018E6B2F0E00018F6F6D
:100D7000956A9494949294908B900050040DF3CFC4
:100D800001F001504DEC08F0300E8C6E8B948B927C
:100D90008B8000504DEC08F00050030DF3CF01F0B4
:100DA000015073EC08F08B900050080DF3CF01F068
:100DB000015060EC08F08B80030E0024026E02509C
:100DC00073EC08F08B90015060EC08F08B800050C1
:100DD000020DF3CF00F0005073EC08F08B9001503F
:100DE00060EC08F0080EE56EA9EC08F0E652C9ECDC
:100DF0000AF0020EE56E01EC0AF0E652180EE56EFE
:100E0000BFEC09F0E652070EE56EEBEC09F0E65296
:100E1000E4CF02F0E4CF01F0E4CF00F0E4CFD9FF5B
:100E20001200D9CFE5FFE1CFD9FF00C0E5FF01C037
:100E3000E5FF02C0E5FF03C0E5FF04C0E5FF05C014
:100E4000E5FF06C0E5FF020EDBCF00F0030EDBCFAF
:100E500001F0040EDBCF02F0050EDBCF03F0060E2F
:100E6000DBCF04F0070EDBCF05F0080EDBCF06F07A
:100E7000D88003AED89015E306500A0A12E104C0E8
:100E8000E9FF05C0EAFF2D0EEF6E044A052A031E96
:100E9000021E011E006C05E1012A03E1022AD8B4FA
:100EA000032A0650E56E0550E56E0450E56E0350CA
:100EB000E56E0250E56E0150E56E0050E56E08ECFF
:100EC00004F0070EE126E4CF06F0E4CF05F0E4CF0E
:100ED00004F0E4CF03F0E4CF02F0E4CF01F0E4CF7C
:100EE00000F0E4CFD9FF120017EEFFF027EEFFF07D
:100EF000F86AA68EA69CE80EF66E150EF76E000E2A
:100F0000F86E0900F5CF05F00900F5CF06F034D0F2
:100F10000900F5CF00F00900F5CF01F00900F5CF89
:100F200002F009000900F5CFE9FF0900F5CFEAFF5B
:100F3000090009000900F5CF03F00900F5CF04F01E
:100F400009000900F6CF07F0F7CF08F0F8CF09F055
:100F500000C0F6FF01C0F7FF02C0F8FF03D0090090
:100F6000F5CFEEFF0306FBE20406F9E207C0F6FF49
:100F700008C0F7FF09C0F8FF0506CAE20606C8E286
:100F80001DEC09F0FFD7D9CFE5FFE1CFD9FF00C0B5
:100F9000E5FF01C0E5FF02C0E5FF03C0E5FF04C0B7
:100FA000E5FF05C0E5FF06C0E5FF020EDBCF00F060
:100FB000030EDBCF01F0040EDBCF02F0036A035017
:100FC0000024046EE86A0120056EE86A0220066EBD
:100FD00004C0E9FF05C0F3FF06507DEC0AF0046E83
:100FE00004500AE0100E035C07E20450E56ED2ECF8
:100FF00008F0E652032AE3D7E4CF06F0E4CF05F089
:10100000E4CF04F0E4CF03F0E4CF02F0E4CF01F04A
:10101000E4CF00F0E4CFD9FF1200D9CFE5FFE1CF54
:10102000D9FF00C0E5FF01C0E5FF02C0E5FF020EE9
:10103000D924006E000EDA20016E800E026E030EBF
:101040000026000E012202220250E56E0150E56EDC
:101050000050E56E040EDBCFE5FF030EDBCFE5FFAE
:10106000020EDBCFE5FF00018F51E56E8E51E56E7C
:101070008D51E56E02EC00F0006EF3CF01F0090E29
:10108000E12601C0F3FF0050E4CF02F0E4CF01F00D
:10109000E4CF00F0E4CFD9FF1200E806E56E630E5E
:1010A00073EC08F0E4500BE000D0E56E630E73ECD7
:1010B00008F000D000D00000E450E82EF6D712006F
:1010C000E806E56E090E73EC08F0E4500BE000D082
:1010D000E56E090E73EC08F000D0E450000000D07B
:1010E000E82EF6D71200E8060000E85007E000D02E
:1010F00000D000D000D00000E82EFAD71200D9CFDF
:10110000E5FFE1CFD9FF00C0E5FF01C0E5FF020E1A
:10111000DBCF00F00050400DF3CF00F00050E56E43
:101120002DEC0AF0E652016A200EE56ED2EC08F0D2
:10113000E652012A100E015CF7E30050E56E2DEC3B
:101140000AF0E652E4CF01F0E4CF00F0E4CFD9FF9B
:101150001200D9CFE5FFE1CFD9FF00C0E5FF01C004
:10116000E5FF020EDBCF00F0FAEC08F0016E015053
:10117000FBE18B948B92956A00C08CFF8B80000101
:101180009851006E0050080DF3CF00F0005060EC55
:1011900008F08B908C6AE4CF01F0E4CF00F0E4CF4C
:1011A000D9FF1200D9CFE5FFE1CFD9FF00C0E5FF9D
:1011B00001C0E5FF020EDBCF00F0FAEC08F0016E93
:1011C0000150FBE18B928B8400C08CFF8B8000016F
:1011D0009851006E0050080DF3CF00F0005060EC05
:1011E00008F08B908C6AE4CF01F0E4CF00F0E4CFFC
:1011F000D9FF1200D9CFE5FFE1CFD9FF00C0E5FF4D
:10120000FF0E956E8B828B948B8000019851006E3F
:101210000050080DF3CF00F0005060EC08F08CCFC8
:1012200000F08B90956A00AE02D0010E01D0E86A02
:10123000E4CF00F0E4CFD9FF1200010EE56E000EFE
:10124000E56E300EE56E96EC06F0030EE126000E1C
:10125000026E120E016E720E006E0250E56E0150AB
:10126000E56E0050E56E0DEC08F0030EE126FFD7A9
:101270001200436F75636F752100E8AE0AD0F3CF9B
:10128000EAFFEE50EECFF3FFEECFF4FFEECFE9FF33
:101290001200E8BC0AEF0BF0E9CFF6FFF3CFF7FF3F
:1012A000F86E0900F5500900F5CFF3FF0900F5CFFE
:1012B000F4FF0900F5CFE9FF1200E8AE08D0F3CF44
:1012C000EAFFEE50EECFF3FFEECFF4FF1200E8BCE2
:1012D00008EF0BF0E9CFF6FFF3CFF7FFF86E090048
:1012E000F5500900F5CFF3FF0900F5CFF4FF120028
:1012F000F2CFEAFFF29EA69EA69CA684E9CFA9FFA4
:10130000E4CFA8FFECEC0AF0F4CFA8FFECEC0AF075
:10131000F6CFA8FFECEC0AF0A694EABEF28E12001B
:10132000F2CFF6FFF29EA69EA69CE9CFA9FFA6806B
:10133000A850A92AA680A8CFF3FFA92AA680A8CFE3
:10134000F4FFA92AA680A8CFEAFFF6BEF28E12000B
:10135000D9CFE5FFE1CFD9FF00C0E5FF020EDBCF1B
:1013600000F0610E005C05E37B0E005C02E2010E02
:1013700001D0E86AE4CF00F0E4CFD9FF1200D9CF62
:10138000E5FFE1CFD9FF00C0E5FF020EDBCF00F0A3
:101390001F0E0016008A0050E56EA9EC08F0E65218
:1013A000E4CF00F0E4CFD9FF1200D9CFE5FFE1CFC1
:1013B000D9FF00C0E5FF020EDBCF00F0030E0016E0
:1013C00000840050E56EA9EC08F0E652E4CF00F08E
:1013D000E4CFD9FF1200D9CFE5FFE1CFD9FF00C09C
:1013E000E5FF020EDBCF00F0070E0016008600506E
:1013F000E56EA9EC08F0E652E4CF00F0E4CFD9FFA7
:101400001200D9CFE5FFE1CFD9FF00C0E5FF020E02
:10141000DBCF00F0030E001600840050E56EA9EC4F
:1014200008F0E652E4CF00F0E4CFD9FF1200E8AEB6
:1014300006D0F3CFEAFFEE50EECFF3FF1200E8BC88
:1014400006EF0BF0E9CFF6FFF3CFF7FFF86E0900D8
:10145000F5500900F5CFF3FF1200D9CFE5FFE1CF3A
:10146000D9FF00C0E5FF020EDBCF00F0009E008E2A
:101470000050E56EA9EC08F0E652E4CF00F0E4CFAE
:10148000D9FF1200D9CFE5FFE1CFD9FF00C0E5FFBA
:10149000006E0001965105E00050E56ED2EC08F0B8
:1014A000E652E4CF00F0E4CFD9FF1200F2CFF6FF0E
:1014B000F29EA69EA69CE9CFA9FFA680A850A92AC5
:1014C000A680A8CFF3FFA92AA680A8CFF4FFF6BE76
:1014D000F28E1200D9CFE5FFE1CFD9FF00C0E5FFC2
:1014E000020EDBCF00F00050E56ED2EC08F0E652C1
:1014F000E4CF00F0E4CFD9FF1200E8AE04D0F3CF80
:10150000EAFFEE501200E8BC04EF0BF0E9CFF6FF63
:10151000F3CFF7FFF86E0900F5501200F2CFEAFFA3
:10152000F29EA69EA69CA684E9CFA9FFE4CFA8FFC1
:10153000ECEC0AF0A694EABEF28E1200F2CFF6FFAF
:10154000F29EA69EA69CE9CFA9FFA680A850A92A34
:10155000A680A8CFF3FFF6BEF28E1200E8AE09D047
:10156000F3CFEAFFE4CFEEFFF4CFEEFFF6CFEEFFCE
:101570001200E8BC0EEF0BF01200D9CFE5FFE1CF6F
:10158000D9FF020EE56EA9EC08F0E652E4CFD9FFD0
:101590001200D9CFE5FFE1CFD9FF010EE56EA9EC2E
:1015A00008F0E652E4CFD9FF1200F2CFF6FFF29E28
:1015B000A69EA69CE9CFA9FFA680A850F6BEF28EF3
:1015C0001200E8AE05D0F3CFEAFFE4CFEEFF120041
:1015D000E8BC0CEF0BF01200550EA76EAA0EA76E1A
:1015E000A682A6B2FED7A94A0100201600009600E6
:1015F000000002000000ACA2FED7AD6E1200E8CFE2
:101600007FFF1200C96E1200D5EF0AF09EEF0AF0BC
:1016100056EF0AF090EF09F08EEF0AF078EF09F03C
:021620000000C8
:020000040030CA
:04000000240E3F1E6D
:020005008181F7
:010008000FE8
:00000001FF
