:020000040000FA
:1000000030EF02F0D9CFE5FFE1CFD9FF00C0E5FF27
:1000100001C0E5FF02C0E5FF03C0E5FF04C0E5FF46
:1000200005C0E5FF06C0E5FF07C0E5FF020EDBCF18
:1000300000F0030EDBCF01F0040EDBCF02F0050E63
:10004000DBCF03F0060EDBCF04F0000EE56E000EF2
:10005000E56E000EE56E0150E56E0050E56EECECCD
:1000600000F0050EE1260150E56E0050E56EC7EC8C
:1000700001F0020EE1260A00006A0050800F7E0F98
:100080002DE202C001F003C005F004C006F0076ACB
:100090000750800F600F10E201C0E9FF05C0F3FFB9
:1000A00006501FEC02F0F56E012AD8B0052AD8B030
:1000B000062A0F00072AECD701C002F005C003F0A2
:1000C00006C004F0A68EA69CA684A698F29E550EA5
:1000D000A76EAA0EA76EA682002ACFD7F28EA6928E
:1000E000E4CF07F0E4CF06F0E4CF05F0E4CF04F06E
:1000F000E4CF03F0E4CF02F0E4CF01F0E4CF00F06E
:10010000E4CFD9FF1200D9CFE5FFE1CFD9FF00C07E
:10011000E5FF01C0E5FF02C0E5FF03C0E5FF04C045
:10012000E5FF05C0E5FF06C0E5FF07C0E5FF08C025
:10013000E5FF09C0E5FF020EDBCF00F0030EDBCFC9
:1001400001F0040EDBCF02F0050EDBCF03F0060E4C
:10015000DBCF04F0070EDBCF05F000C006F001C0D6
:1001600007F002C008F003C0E9FF04C0F3FF055028
:100170001FEC02F0096E032AD8B0042AD8B0052A71
:1001800009C0E5FF06C0E9FF07C0F3FF08503CECDB
:1001900002F0062AD8B0072AD8B0082A0950E3E1AD
:1001A00002C0F4FF01C0F3FF0050E4CF09F0E4CF38
:1001B00008F0E4CF07F0E4CF06F0E4CF05F0E4CF99
:1001C00004F0E4CF03F0E4CF02F0E4CF01F0E4CF99
:1001D00000F0E4CFD9FF1200D9CFE5FFE1CFD9FF7E
:1001E00000C0E5FF01C0E5FF02C0E5FF03C0E5FF79
:1001F00004C0E5FF05C0E5FF06C0E5FF020EDBCF4A
:1002000000F0030EDBCF01F0040EDBCF02F0050E91
:10021000DBCF03F0060EDBCF04F0C00E0016F86A49
:100220000150056E066A0550F76E0050F66E02C06A
:1002300000F003C001F004C002F0400E036E09009C
:100240000050011002100EE0F5CFE5FF00C0E9FFFD
:1002500001C0F3FF02503CEC02F0002AD8B0012AA2
:10026000D8B0022A032EEBD7E4CF06F0E4CF05F096
:10027000E4CF04F0E4CF03F0E4CF02F0E4CF01F0E8
:10028000E4CF00F0E4CFD9FF12008C0EF66E040E1E
:10029000F76E000EF86E0900F550056E0900F55076
:1002A000066E055002E106503BE00900F550006E75
:1002B0000900F550016E0900F550026E09000900B1
:1002C000F550E96E0900F550EA6E090009000900D1
:1002D000F550036E0900F550046E09000900F6CFD1
:1002E00007F0F7CF08F0F8CF09F000C0F6FF01C023
:1002F000F7FF02C0F8FF035002E1045007E00900D5
:10030000F550EE6E0306F8E20406F9D707C0F6FFD3
:1003100008C0F7FF09C0F8FF0506C4E20606C5D706
:100320001200000E016E600E006E800E026E000E56
:10033000E56E030EE56E780EE56E0250E56E015037
:10034000E56E0050E56E83EC00F0060EE126000E2F
:10035000016E600E006E800E026E0250E56E01505E
:10036000E56E0050E56E100EE56E000EE56E02ECD7
:1003700000F0050EE1261200426F6E6A6F75722062
:10038000746F7574206C65206D6F6E646500D9CFD5
:10039000E5FFE1CFD9FF00C0E5FF01C0E5FF02C0E6
:1003A000E5FF03C0E5FF020EDBCF00F0030EDBCF5D
:1003B00001F0C00E0016F86A0150026E036A025086
:1003C000F76E0050F66EA68EA69CA684A688F29EB6
:1003D000550EA76EAA0EA76EA682F28EA692E4CF45
:1003E00003F0E4CF02F0E4CF01F0E4CF00F0E4CF7B
:1003F000D9FF1200D9CFE5FFE1CFD9FF00C0E5FF5B
:1004000001C0E5FF02C0E5FF03C0E5FF020EDBCF40
:1004100000F0030EDBCF01F0F86A0150026E036AB0
:100420000250F76E0050F66EE4CF03F0E4CF02F016
:10043000E4CF01F0E4CF00F0E4CFD9FF1200E8AE42
:1004400004D0F3CFEAFFEE501200E8BC08D0E9CFA9
:10045000F6FFF3CFF7FFF86E0900F5501200120017
:1004600011EEFFF021EEFFF0F86AA68EA69C45EC97
:1004700001F091EC01F0FFD7E8AE05D0F3CFEAFF31
:10048000E4CFEEFF1200E8AC1200120001009A0463
:0C0490000000A0000000010000000000BF
:020000040030CA
:0E000000E4FEFFFEFFFDBBFFFFFFFFFFFFFF63
:00000001FF
