:020000040000FA
:100000003FEF01F0D9CFE5FFE1CFD9FF00C0E5FF19
:1000100001C0E5FF02C0E5FF03C0E5FF04C0E5FF46
:1000200005C0E5FF06C0E5FF07C0E5FF020EDBCF18
:1000300000F0030EDBCF01F0040EDBCF02F0050E63
:10004000DBCF03F0060EDBCF04F0000EE56E000EF2
:10005000E56E000EE56E0150E56E0050E56EE7ECD2
:1000600000F0050EE1260150E56E0050E56ECAEC89
:1000700001F0E652E6520A00006A02C001F003C035
:1000800005F004C006F0076A01C0E9FF05C0F3FFF0
:10009000065022EC02F0F56E012A02E3054A062A18
:1000A0000F00072A0750800F600FEEE301C002F037
:1000B00005C003F006C004F0A68EA69CA684A698F0
:1000C000F29E550EA76EAA0EA76EA682002A0050B9
:1000D000800F7E0FD2E3F28EA692E4CF07F0E4CF3A
:1000E00006F0E4CF05F0E4CF04F0E4CF03F0E4CF72
:1000F00002F0E4CF01F0E4CF00F0E4CFD9FF12002A
:10010000D9CFE5FFE1CFD9FF00C0E5FF01C0E5FF92
:1001100002C0E5FF03C0E5FF04C0E5FF05C0E5FF41
:1001200006C0E5FF07C0E5FF08C0E5FF09C0E5FF21
:10013000020EDBCF00F0030EDBCF01F0040EDBCFAD
:1001400002F0050EDBCF03F0060EDBCF04F0070E46
:10015000DBCF05F000C006F001C007F002C008F0D8
:1001600003C0E9FF04C0F3FF055022EC02F0096E62
:10017000032A02E3044A052A09C0E5FF06C0E9FF95
:1001800007C0F3FF08504FEC02F0062A02E3074ACB
:10019000082A0950E5E102C0F4FF01C0F3FF005056
:1001A000E4CF09F0E4CF08F0E4CF07F0E4CF06F0A5
:1001B000E4CF05F0E4CF04F0E4CF03F0E4CF02F0A5
:1001C000E4CF01F0E4CF00F0E4CFD9FF1200D9CFA3
:1001D000E5FFE1CFD9FF00C0E5FF01C0E5FF02C0A8
:1001E000E5FF03C0E5FF04C0E5FF05C0E5FF06C06D
:1001F000E5FF020EDBCF00F0030EDBCF01F0040EB3
:10020000DBCF02F0050EDBCF03F0060EDBCF04F0F0
:10021000C00E0016F86A0150056E066A0550F76EAA
:100220000050F66E02C000F003C001F004C002F0FE
:10023000400E036E09000050011002100DE0F5CFD2
:10024000E5FF00C0E9FF01C0F3FF02504FEC02F0F0
:10025000002A02E3014A022A032EECD7E4CF06F07B
:10026000E4CF05F0E4CF04F0E4CF03F0E4CF02F0F4
:10027000E4CF01F0E4CF00F0E4CFD9FF120017EE95
:10028000FFF027EEFFF0F86AA68EA69CC40EF66E6D
:10029000040EF76E000EF86E0900F5CF05F00900A8
:1002A000F5CF06F034D00900F5CF00F00900F5CF06
:1002B00001F00900F5CF02F009000900F5CFE9FFD0
:1002C0000900F5CFEAFF090009000900F5CF03F0A6
:1002D0000900F5CF04F009000900F6CF07F0F7CFC9
:1002E00008F0F8CF09F000C0F6FF01C0F7FF02C028
:1002F000F8FF03D00900F5CFEEFF0306FBE204068A
:10030000F9E207C0F6FF08C0F7FF09C0F8FF0506CD
:10031000CAE20606C8E28EEC01F0FFD7000E016EBD
:10032000600E006E800E026E000E056E030E046EEF
:100330007E0E036E0550E56E0450E56E0350E56ECB
:100340000250E56E0150E56E0050E56E80EC00F065
:10035000060EE126000E016E600E006E800E026E2B
:100360000250E56E0150E56E0050E56E100EE56E30
:10037000000EE56E02EC00F0050EE1261200426F61
:100380006E6A6F757220746F7574206C65206D6F66
:100390006E646500D9CFE5FFE1CFD9FF00C0E5FF6E
:1003A00001C0E5FF02C0E5FF03C0E5FF020EDBCFA1
:1003B00000F0030EDBCF01F0C00E0016F86A01500A
:1003C000026E036A0250F76E0050F66EA68EA69C6F
:1003D000A684A688F29E550EA76EAA0EA76EA682C8
:1003E000F28EA692E4CF03F0E4CF02F0E4CF01F066
:1003F000E4CF00F0E4CFD9FF1200D9CFE5FFE1CF81
:10040000D9FF00C0E5FF01C0E5FF02C0E5FF03C062
:10041000E5FF020EDBCF00F0030EDBCF01F0F86A40
:100420000150026E036A0250F76E0050F66EE4CF80
:1004300003F0E4CF02F0E4CF01F0E4CF00F0E4CF2A
:10044000D9FF1200E8AE04D0F3CFEAFFEE5012005D
:10045000E8BC6BEF02F0E9CFF6FFF3CFF7FFF86EE1
:100460000900F5501200F2CFEAFFF29EA69EA69C6C
:10047000A684E9CFA9FFE4CFA8FF5AEC02F0A69426
:10048000EABEF28E1200F2CFF6FFF29EA69EA69C66
:10049000E9CFA9FFA680A850F6BEF28E1200E8AE02
:1004A00005D0F3CFEAFFE4CFEEFF1200E8BC69EF1E
:1004B00002F01200550EA76EAA0EA76EA682A6B273
:1004C000FED7A94A0100DA040000A00000000100E4
:0C04D000000033EF02F043EF02F00000E8
:020000040030CA
:04000000240E3F1E6D
:020005008181F7
:010008000FE8
:00000001FF
