:020000040000FA
:10000000DEEF00F0E806E56E630E21EC00F0630E13
:100010004DEC00F0090E60EC00F0E45011E000D06F
:10002000E56E630E21EC00F0630E4DEC00F0090E5E
:1000300060EC00F000D000D00000E450E82EF0D7D3
:100040001200E806E56E090E3AEC00F0630E60EC73
:1000500000F0E4500EE000D0E56E090E3AEC00F03E
:10006000630E60EC00F000D000D00000E450E82EF9
:10007000F3D71200E806E56E630E60EC00F0E45082
:100080000BE000D0E56E630E60EC00F000D000D015
:100090000000E450E82EF6D71200E806E56E090EDF
:1000A00060EC00F0E4500BE000D0E56E090E60EC6F
:1000B00000F000D0E450000000D0E82EF6D7120087
:1000C000E8060000E85007E000D000D000D000D0E3
:1000D0000000E82EFAD71200D40EF66E010EF76E6D
:1000E000000EF86E0900F550056E0900F550066E19
:1000F000055002E106503BE00900F550006E090092
:10010000F550016E0900F550026E09000900F55026
:10011000E96E0900F550EA6E090009000900F55082
:10012000036E0900F550046E09000900F6CF07F0D0
:10013000F7CF08F0F8CF09F000C0F6FF01C0F7FFD5
:1001400002C0F8FF035002E1045007E00900F55037
:10015000EE6E0306F8E20406F9D707C0F6FF08C002
:10016000F7FF09C0F8FF0506C4E20606C5D712006E
:10017000010E006E956A936A010E8A6E010E8C6EF6
:10018000050E02EC00F00050800A0AE0D89000361C
:1001900000C08AFF00C08CFF050E02EC00F0F3D710
:1001A0000050010AF0E0D890003200C08AFF00C081
:1001B0008CFF050E02EC00F0F3D7120011EEFFF0F9
:1001C00021EEFFF0F86AA68EA69C6CEC00F0B8EC6D
:1001D00000F0FFD70100E201000060000000010014
:0401E000000000001B
:020000040030CA
:0E000000E4FEFFFEFFFDBBFFFFFFFFFFFFFF63
:00000001FF
